:020000040000FA
:08000000803102288731FD2F39
:100C6200F000332E22009E1C372E382E332E392EC2
:100C720070089A0008007108F3007008F200F2355B
:100C8200F30D7208FE3EF400FF30733DF500750867
:100C9200F1007408F0004D2E08003E00CE134E13F2
:100CA2001030A6003D004B08E0391738CB00220077
:100CB2001E119F1133309B009D171D169E161E128A
:100CC2000800F401F501742E71087407840072089B
:100CD200753D850000088631312686310130F407E2
:100CE2000030F53D742E7108740784007208753D5A
:100CF20085001200031D7E2E7F2E652E802E080099
:100D020086314E268631852EF030F1008930F20090
:100D12008631622686310030F1008830F200863159
:100D2200622686312C30F1008A30F200863162264A
:100D320086310530F1008A30F20086316226863132
:100D42008731042786311930F1008A30F20086316A
:100D520062268631852E852E803102287908F1009F
:100D62007808F00086313C26863171082000A10007
:100D72007008A000760877040319C02EC12ED22E67
:100D82007808FF3EFC00FF30793DFD0077087D06C4
:100D9200031DCD2E76087C06031DD02ED12ED92E12
:100DA200D22E2108F7002008F600032F032F032F6D
:100DB2007A037B04031DDE2EDF2EF12E7708FD0061
:100DC2007608FC00FC35FD0DFC09FD09FC0A03193F
:100DD200FD0A20087C07A00021087D3DA100FD2E10
:100DE20002307A067B04031DF72EF82EFD2E76358F
:100DF200A000770DA100FD2E2108F7002008F600C3
:100E0200032F032F08000A302000AD000030AE008F
:100E1200F030A9000130AA00B101B2013208F70096
:100E22003108F6002E08F9002D08F8000130FA000A
:100E32000030FB008631AF26873177082000A600FC
:100E42007608A5003208F7003108F6002E08F900EE
:100E52002D08F8000230FA000030FB008631AF2680
:100E6200873177082000A8007608A700AF01B001FB
:100E7200AB01AC01B101B201ED2F20003208F70045
:100E82003108F6002E08F9002D08F8000130FA00AA
:100E92000030FB008631AF26873177082000A6009C
:100EA2007608A5003208F7003108F6002E08F9008E
:100EB2002D08F8000230FA000030FB008631AF2620
:100EC200873177082000A8007608A7003108250797
:100ED200AF003208263DB00027082F07AB002808D4
:100EE200303DAC00320885003108840000308407B0
:100EF2008830853D000886313126873120002A0856
:100F0200803AA2003008803A2202031D8A2F2F085D
:100F1200290203188D2F8E2F912FFC2FFC2F912F3A
:100F220020002908FF3EA200FF302A3DA30023082B
:100F3200803AA4003008803A2402031DA22F2F0811
:100F420022020318A52FA62FA82FE82FE82F200092
:100F5200300885002F088400003084078830853DE2
:100F6200000886313126873120002908FF3EA20081
:100F7200FF302A3DA3002308803AA4002C08803ABF
:100F82002402031DC62F2B0822020318C92FCA2FC1
:100F9200CC2FE82FE82F20002C0885002B08840096
:100FA200003084078830853D00088631312687313C
:100FB200200025082B07AF0026082C3DB00027088B
:100FC2002F07AB002808303DAC00912F912F013044
:100FD2002000B1070030B23D3208803AA2002E084C
:100FE200803A2202031DF72F2D083102031CFA2F2B
:100FF200FB2F3E2FFC2F080020008631812E4E341D
:101002006F3477342C34203461346634743465346C
:1010120072342034743468346534203465346E3468
:101022007334753469346E34673420346134763401
:1010320061346C3461346E34633468346534203422
:101042006F346634203473346534713475346534E6
:101052006C3473342C34203470347234653471340B
:10106200753465346C347334203461346E346434D2
:101072002034733469346434653420347334743402
:101082006F3472346934653473342C3420347434DC
:101092006834653420347334613467346134203405
:1010A2006F34663420344B347234613474346F34A8
:1010B2007334203473347434613472342D346334B1
:1010C20072346F34733473346534643420346C3462
:1010D20069346634653420346834613473342034BE
:1010E2006234653463346F346D3465342034613472
:1010F20073342034743461346E3467346C34653440
:101102006434203461346E346434203463346F3494
:101112006D3470346C346534783420346134733413
:10112200203474346834653420346D347934743442
:101132006834693463342034743461346C34653413
:101142007334203474346834613474342034693430
:101152006E347334703469347234653464342034D8
:10116200743468346534203477346F3472346C34B8
:1011720064342034683465347334203469346E3412
:1011820068346134623469347434653464342E34BE
:10119200203441346E3464342034743468346F340F
:1011A20075346734683420347434683465342034D8
:1011B2007534703463346F346D3469346E3467342B
:1011C200203450346C34613479345334743461349F
:1011D200743469346F346E342034343420346634D9
:1011E2006F346C346C346F3477342D34753470341E
:1011F200203464346F346534733420346934743485
:101202007334203462346534733474342034743467
:101212006F3420346C346534613476346534203470
:1012220074346834653420346C34793472346534FF
:101232007334203461346E34643420347734693446
:101242006E34673465346434203463346834613412
:10125200723469346F347434733420346F346634C6
:101262002034663461346E347434613473347934C6
:10127200203461346E346334693465346E347434CA
:101282002034473472346534653463346534203431
:1012920069346E34203474346834653420347234E2
:1012A2006534613472347634693465347734203489
:1012B2006D346934723472346F3472342C342034A5
:1012C20068346534723465347334203461342034C4
:1012D20071347534693463346B342034703472344D
:1012E20069346D346534723420346F346E34203492
:1012F20061346C346C342034743468346534203492
:101302006D3461346A346F3472342034723465342B
:10131200763465346C346134743469346F346E34C9
:1013220073342034663472346F346D342034743440
:1013320068346534203470347234653476346934F8
:101342006F34753473342034673461346D346534EA
:1013520073342C34203461346E3464342034683471
:101362006F347734203474346834653479342034FB
:1013720073346834613470346534643420347434C2
:1013820068346534203461346E34673472347934AD
:10139200203461346E3474346934683465347234A0
:1013A2006F342034613474342034743468346534D6
:1013B2002034683465346C346D342E342034473430
:1013C200613462347234693465346C34203450349C
:1013D20061346C34683461347234653473346D341E
:1013E20065346E3473346134673465346D3420345B
:1013F2006F3472346934673469346E3461346C34F6
:101402000A343A34203400344D3465346E34733443
:101412006134673465346D3420344334693466345E
:1014220072346134643461343A3420340A3400341E
:101432000A34463469346D342034643461342034DF
:101442006D3465346E3473346134673465346D34AD
:0E1452000A340A3400340D340D340D340034E5
:020000040001F9
:0A000E008C3FFF3F9F3FFF3FFF3F85
:00000001FF
