:020000040000FA
:08000000803102288731FD2F39
:100CC800F000662E22009E1C6A2E6B2E662E6C2E5D
:100CD80070089A0008007108F3007008F200F235F5
:100CE800F30D7208FE3EF400FF30733DF500750801
:100CF800F1007408F000802E08003E00CE134E1359
:100D08001030A6003D004B08E0391738CB00220010
:100D18001E119F1133309B009D171D169E161E1223
:100D280008002000920186318126863120001714A0
:100D38008731042786312000171003302000B400C3
:100D48000830B3007730890BA72EB30BA72EB40B4E
:100D5800A72E803102287908F1007808F000863142
:100D68006F26863171082000A1007008A00076085F
:100D780077040319C02EC12ED22E7808FF3EFC003E
:100D8800FF30793DFD0077087D06031DCD2E7608DE
:100D98007C06031DD02ED12ED92ED22E2108F70085
:100DA8002008F600032F032F032F7A037B04031D6B
:100DB800DE2EDF2EF12E7708FD007608FC00FC35CC
:100DC800FD0DFC09FD09FC0A0319FD0A20087C0732
:100DD800A00021087D3DA100FD2E02307A067B048B
:100DE800031DF72EF82EFD2E7635A000770DA100F5
:100DF800FD2E2108F7002008F600032F032F080016
:100E08000A302000AD000030AE00B830A9000B3029
:100E1800AA00B101B2013208F7003108F6002E0825
:100E2800F9002D08F8000130FA000030FB00863187
:100E3800AF26873177082000A6007608A50032087B
:100E4800F7003108F6002E08F9002D08F8000230E6
:100E5800FA000030FB008631AF2687317708200082
:100E6800A8007608A700AF01B001AB01AC01B10141
:100E7800B201ED2F20003208F7003108F6002E08E5
:100E8800F9002D08F8000130FA000030FB00863127
:100E9800AF26873177082000A6007608A50032081B
:100EA800F7003108F6002E08F9002D08F800023086
:100EB800FA000030FB008631AF2687317708200022
:100EC800A8007608A70031082507AF003208263D9C
:100ED800B00027082F07AB002808303DAC003208C7
:100EE800850031088400003084078830853D00087B
:100EF80086316426873120002A08803AA20030080B
:100F0800803A2202031D8A2F2F08290203188D2FE9
:100F18008E2F912FFC2FFC2F912F20002908FF3EA8
:100F2800A200FF302A3DA3002308803AA40030081D
:100F3800803A2402031DA22F2F0822020318A52F8E
:100F4800A62FA82FE82FE82F2000300885002F08AB
:100F58008400003084078830853D00088631642687
:100F6800873120002908FF3EA200FF302A3DA30058
:100F78002308803AA4002C08803A2402031DC62FB7
:100F88002B0822020318C92FCA2FCC2FE82FE82FCD
:100F980020002C0885002B08840000308407883046
:100FA800853D0008863164268731200025082B07F7
:100FB800AF0026082C3DB00027082F07AB002808F3
:100FC800303DAC00912F912F01302000B107003047
:100FD800B23D3208803AA2002E08803A2202031D50
:100FE800F72F2D083102031CFA2FFB2F3E2FFC2F61
:100FF800080020008631952E4E346F3477342C3417
:101008002034613466347434653472342034743472
:1010180068346534203465346E3473347534693417
:101028006E34673420346134763461346C3461341E
:101038006E3463346834653420346F346634203455
:10104800733465347134753465346C3473342C34CA
:1010580020347034723465347134753465346C34CA
:101068007334203461346E34643420347334693416
:10107800643465342034733474346F3472346934AE
:10108800653473342C342034743468346534203433
:10109800733461346734613420346F3466342034F7
:1010A8004B347234613474346F3473342034733491
:1010B8007434613472342D34633472346F3473345D
:1010C80073346534643420346C346934663465347C
:1010D80020346834613473342034623465346334C2
:1010E8006F346D346534203461347334203474348F
:1010F80061346E3467346C3465346434203461345C
:101108006E346434203463346F346D3470346C342A
:10111800653478342034613473342034743468345A
:10112800653420346D347934743468346934633404
:101138002034743461346C3465347334203474343A
:10114800683461347434203469346E3473347034E0
:1011580069347234653464342034743468346534E2
:10116800203477346F3472346C3464342034683407
:1011780065347334203469346E34683461346234CD
:1011880069347434653464342E34203441346E3414
:1011980064342034743468346F3475346734683494
:1011A80020347434683465342034753470346334CE
:1011B8006F346D3469346E346734203450346C3491
:1011C80061347934533474346134743469346F3429
:1011D8006E3420343434203466346F346C346C34D8
:1011E8006F3477342D3475347034203464346F346C
:1011F800653473342034693474347334203462347D
:10120800653473347434203474346F3420346C345B
:101218006534613476346534203474346834653424
:1012280020346C3479347234653473342034613446
:101238006E3464342034773469346E3467346534FA
:1012480064342034633468346134723469346F34FC
:101258007434733420346F34663420346634613423
:101268006E347434613473347934203461346E34B8
:101278006334693465346E347434203447347234DA
:101288006534653463346534203469346E3420340D
:10129800743468346534203472346534613472349B
:1012A800763469346534773420346D346934723473
:1012B80072346F3472342C342034683465347234A8
:1012C80065347334203461342034713475346934AE
:1012D80063346B3420347034723469346D3465345B
:1012E800723420346F346E34203461346C346C348E
:1012F800203474346834653420346D3461346A348D
:101308006F347234203472346534763465346C3416
:101318006134743469346F346E3473342034663411
:1013280072346F346D342034743468346534203446
:10133800703472346534763469346F347534733488
:101348002034673461346D34653473342C3420347C
:1013580061346E346434203468346F347734203424
:1013680074346834653479342034733468346134BF
:10137800703465346434203474346834653420340B
:1013880061346E34673472347934203461346E34A5
:10139800743469346834653472346F342034613499
:1013A80074342034743468346534203468346534D3
:1013B8006C346D342E342034413473342034723418
:1013C80065347634653461346C346534643420347F
:1013D80069346E3420343234303430343734733432
:1013E800203447346F34643420346F346634203406
:1013F80057346134723420343234203461346E34DA
:1014080064342034743468346534203432343034ED
:1014180031343034203450346C34613479345334BA
:1014280074346134743469346F346E342034503415
:101438006F3472347434613462346C3465342034FB
:1014480065346E34743472347934203447346F34EC
:10145800643420346F346634203457346134723441
:101468003A342034473468346F3473347434203455
:101478006F346634203453347034613472347434C5
:1014880061342C3420344B347234613474346F3406
:1014980073342034773461347334203462346F34D5
:1014A80072346E34203469346E34203474346834C1
:1014B8006534203447347234653465346B342034F1
:1014C80063346934743479342D3473347434613446
:1014D8007434653420346F346634203453347034B3
:1014E80061347234743461342C3420347434683484
:1014F80065342034643465346D34693467346F344A
:101508006434203473347034613477346E34203466
:101518006F34663420346F346E34653420346F345D
:10152800663420345A3465347534733420346D3459
:1015380061346E3479342034643461346C346C34FE
:10154800693461346E3463346534733420347734E9
:1015580069347434683420346D346F3472347434BC
:1015680061346C34203477346F346D3465346E34C0
:101578002E3420344834653420347734613473345D
:1015880020346234723465346434203466346F3401
:101598007234203462346134743474346C34653495
:1015A800203469346E3420347434683461347434CB
:1015B800203469346E34663461346D346F34753474
:1015C80073346C3479342034623465346C346C345C
:1015D800693463346F3473346534203473346F344E
:1015E80063346934653474347934203461346C3448
:1015F8006F346E346734733469346434653420343A
:101608006834693473342034623472346F34743417
:101618006834653472342C34203444346534693485
:101628006D346F3473342C3420346B346E346F342F
:10163800773469346E34673420346E346F347434DC
:10164800683469346E34673420346F346634203437
:1016580068346934733420344F346C3479346D34DD
:101668007034693461346E342034683465347234CB
:10167800693474346134673465342E342034453425
:10168800613472346C347934203469346E342034E3
:101698006834693473342034613464346F346C349E
:1016A80065347334633465346E34633465342C3490
:1016B80020345A3465347534733420346C346534CA
:1016C800613472346E346534643420346F34663473
:1016D800203461342034703472346F347034683498
:1016E8006534633479342034743468346134743440
:1016F800203473347434613474346534643420347D
:10170800743468346134743420346F346E3465341E
:1017180020346F34663420346834693473342034A8
:101728006334683469346C346434723465346E34C8
:10173800203477346F3475346C3464342034653431
:10174800763465346E347434753461346C346C3486
:101758007934203473346C34613479342034683407
:1017680069346D342034E2348034943420346A345B
:1017780075347334743420346134733420346834E9
:1017880065342034683469346D34733465346C34AA
:101798006634203468346134643420346D347534EC
:1017A8007234643465347234653464342034683493
:1017B800693473342034663461347434683465347D
:1017C80072342C34203474346834653420345434FE
:1017D8006934743461346E342034433472346F3471
:1017E8006E346F3473342C34203474346F342034B2
:1017F80075347334683465347234203469346E3423
:101808002034743468346534203465347234613477
:1018180020346F34663420347434683465342034AA
:1018280067346F34643473342E3420345A34653456
:10183800753473342034733465346E34743420341E
:10184800743477346F3420346F3466342034683419
:101858006934733420346334683469346C346434E0
:10186800723465346E342C34203441347434683422
:1018780065346E346134203461346E346434203419
:1018880041347234653473342C34203474346F34F6
:101898002034663469346E346434203474346834E3
:1018A80065342034663461347434653464342034E7
:1018B8006F346634663473347034723469346E3419
:1018C8006734203461346E34643420346B346934C2
:1018D8006C346C3420347434683465346D342E348C
:1018E80020344534763465346E3474347534613458
:1018F8006C346C3479342C34203474346834653462
:101908002034743477346F34203473346934623457
:101918006C3469346E346734733420346434653419
:101928007434653472346D3469346E3465346434B7
:101938002034743468346134743420344434653465
:1019480069346D346F3473342034773461347334CC
:10195800203474346834653420346C3469346B341E
:1019680065346C3479342034633461346E346434CF
:1019780069346434613474346534203464347534BF
:101988006534203474346F342034733474347234CE
:1019980061346E346734653420346D3461347234A4
:1019A8006B3469346E346734733420346F346E3476
:1019B8002034683469347334203462346F346434C6
:1019C80079342C34203461346E34643420347434E3
:1019D8006834653479342034733474346F346C3437
:1019E80065342034683469346D3420346134773494
:1019F800613479342034663472346F346D34203471
:101A08004B347234613474346F3473342034613439
:101A18006E3464342034643465346C346934763418
:101A280065347234653464342034683469346D3410
:101A3800203474346F3420345434683461346E3450
:101A4800613474346F3473342C342034743468340F
:101A58006534203467346F34643420346F3466342A
:101A68002034643465346134743468342C3420345C
:101A780067346934763469346E34673420344B34CF
:101A88007234613474346F347334203461342034E4
:101A9800643469347334743469346E34633474343C
:101AA8006934763465342034733463346134723481
:101AB80020346F34763465347234203468346934B1
:101AC8007334203465347934653420347734683499
:101AD80065346E3420346834653420347434723498
:101AE800693465346434203474346F342034733486
:101AF80074346F34703420347434683465346D341D
:101B08002E344134733420346834653420346734D7
:101B180072346534773420346F346C34643465340B
:101B280072342C3420344B347234613474346F344E
:101B3800733420346D3461347234723469346534EA
:101B48006434203461346E3464342034663461344F
:101B580074346834653472346534643420346134E0
:101B680020346334683469346C3464342C3420345D
:101B78006134733420347234653463346F347534AB
:101B88006E34743465346434203469346E342034EB
:101B980074346834653420346234613463346B34AB
:101BA800733474346F3472347934203474346F3449
:101BB800203474346834653420346F3472346934B2
:101BC800673469346E3461346C34203447346F348C
:101BD800643420346F3466342034573461347234BA
:101BE8002E342034483469347334203461347034EA
:101BF800703465347434693474346534203466342C
:101C08006F347234203467346C346F3472347934FE
:101C1800203461346E34643420346D346534723465
:101C2800633469346C3465347334733420347434F5
:101C380061346334743469346334733420346934FC
:101C48006E34203462346134743474346C346534E2
:101C5800203477346F346E342034683469346D340A
:101C680020346134633463346C34613469346D34E2
:101C78002034663472346F346D34203468346934F7
:101C88007334203473347534703465347234693481
:101C98006F3472347334203461346E3464342034D5
:101CA80066346534613472342034663472346F3487
:101CB8006D34203468346934733420346C346534BA
:101CC800673469346F346E34733420346F34663457
:101CD800203466346F34653473342C3420346134E2
:101CE8006E34643420346F3476346534723420347E
:101CF800743469346D346534203468346534203480
:101D080067346134743468346534723465346434E7
:101D1800203468346934733420346F3477346E3443
:101D28002034613472346D347934203475346E342F
:101D3800643465347234203474346834653420343F
:101D4800623461346E346E346534723420346F34E6
:101D580066342034533470346134723474346134EA
:101D68002E34203448346F3477346534763465340F
:101D780072342C3420346534763465346E3420342F
:101D880067347234653461347434203461347234A5
:101D98006D3469346534733420346C346F3473347F
:101DA8006534203462346134743474346C3465348A
:101DB80073342C34203461346E3464342034683401
:101DC8006934733420346534763465346E3474344D
:101DD800753461346C346C347934203466346F343F
:101DE80075346E346434203469347434733465342F
:101DF8006C34663420346F3476346534723470341D
:101E08006F34773465347234653464342034623422
:101E1800793420347434683465342034423461347D
:101E28007234623461347234693461346E347334B8
:101E38002034663472346F346D342034743468342A
:101E4800653420346E346534623475346C346F34E0
:101E580075347334203445346134733474342E3417
:101E68002034573469347434683420346434653425
:101E78006634653461347434203469346E34203403
:101E8800733469346734683474342C3420344B34F4
:101E98007234613474346F34733420347334773467
:101EA8006F347234653420346634653461346C348C
:101EB80074347934203474346F34203441347234B7
:101EC800653473342C3420347434683465342034E5
:101ED800733461346D346534203467346F3464345A
:101EE80020346F34663420347734613472342034CB
:101EF800743468346134743420346834613464343C
:101F08002034743461346B3465346E34203468346E
:101F1800693473342034623472346F3474346834FE
:101F2800653472342C34203469346E3420346F3480
:101F38007234643465347234203474346F34203429
:101F48007434753472346E342034743468346534BF
:101F58002034743469346434653420346F3466341E
:101F68002034743468346534203462346134743411
:101F780074346C3465342E34203449346D34703400
:101F880072346534733473346534643420346234A1
:101F980079342034683469347334203468346134D3
:101FA8006C3466342034623472346F347434683478
:101FB800653472347334203472347534743468344C
:101FC8006C346534733473346E34653473347334F9
:101FD8002C34203441347234653473342034613401
:101FE8006C346C346F34773465346434203468343A
:101FF80069346D34203469346E3474346F34203469
:102008006834693473342034733465347234763404
:102018006934633465342C34203461346E34643468
:10202800203462346534733474346F3477346534EF
:1020380064342034753470346F346E3420344B3447
:102048007234613474346F347334203474346834C3
:102058006534203442346C34613464346534733408
:1020680020346F34663420344334683461346F3438
:1020780073342C342034613420347334653474342C
:1020880020346F3466342034733477346F347234C8
:1020980064347334203466346F347234673465348E
:1020A8006434203469346E342034743468346534CC
:1020B800203475346E3464346534723477346F3454
:1020C80072346C3464342034743468346134743455
:1020D800203462346534633461346D3465342034BB
:1020E8006C34693474346534723461346C346C34EF
:1020F8007934203463346834613469346E34653437
:102108006434203474346F3420346834693473345C
:10211800203466346F3472346534613472346D340B
:10212800733420346134733420346134203472348D
:1021380065346D3469346E346434653472342034F3
:102148006F346634203468346934733420346F341F
:102158006134743468342E34203457346934743418
:1021680068342034743468346934733420346E34F9
:102178006534773466346F3475346E34643420349F
:1021880070346F347734653472342C3420344B34E3
:102198007234613474346F34733420346434653485
:1021A800663465346134743465346434203474348A
:1021B80068346534203465346E3474346934723468
:1021C800653420346F34703470346F347334693448
:1021D8006E346734203466346F3472346334653453
:1021E8002034623479342034683469346D3473347B
:1021F80065346C3466342C34203472346534763467
:1022080065346C3469346E346734203469346E3420
:102218002034743468346534203462346C346F3458
:102228006F34643473346834653464342E34413420
:1022380073342034743468346534203467346F342C
:10224800643420346F346634203477346134723423
:10225800733420346C346F34793461346C34203402
:102268007334753462346A346534633474342C34AA
:1022780020344B347234613474346F347334203402
:1022880072346F3461346D346534643420346134AD
:1022980072346F3475346E34643420347434683472
:1022A8006534203463346F3475346E347434723466
:1022B800793473346934643465342C3420346B34A1
:1022C80069346C346C3469346E3467342034733454
:1022D8006F346C3464346934653472347334203444
:1022E80061346E346434203469346E346E346F343F
:1022F800633465346E3474347334203469346E3422
:102308006434693473346334723469346D346934D1
:102318006E346134743465346C3479342E3420343A
:102328005334743469346C346C342C342034683449
:10233800693473342034773469346634653420342E
:1023480061346E34643420346334683469346C34F2
:102358006434203474346934653464342034683423
:1023680069346D34203474346F34203474346834F0
:10237800653420347234653461346C346D342034FF
:102388006F34663420346534763465347234793485
:102398006434613479342034703465346F34703483
:1023A8006C3465342C34203461346E346434203415
:1023B800413472346534733420347334613477347F
:1023C8002034663469347434203474346F342034DF
:1023D80068346134743463346834203461342034AC
:1023E80070346C3461346E34203474346F34203477
:1023F8007334653476346534723420347434683414
:10240800613474342034743468347234653461341B
:1024180064342C342034743465346C34653470344A
:102428006F347234743469346E34673420347434DD
:1024380068346534203453347034613472347434FD
:1024480061346E3473342034663461346D346934E5
:102458006C347934203469346E3474346F342034F5
:10246800613420346E3465346134723462347934C2
:102478002034743465346D3470346C3465342034ED
:1024880064347534723469346E34673420346F348C
:102498006E34653420346F346634203468346934DB
:1024A80073342034723461346D3470346134673479
:1024B8006534733420347434683472346F3475344A
:1024C80067346834203461342034763469346C34A9
:1024D8006C346134673465342E34203454346F34AA
:1024E8006F3420346434723475346E346B34203471
:1024F8006F346E3420346834693473342034723461
:10250800613467346534203474346F342034723461
:10251800653463346F3467346E3469347A346534BF
:10252800203468346934733420346F3477346E342B
:1025380020346C346F3476346534643420346F342A
:102548006E34653473342C3420344B347234613433
:1025580074346F347334203465346E3474346534B1
:102568007234653464342034743468346534203407
:10257800743465346D3470346C34653420346134AB
:102588006E346434203473346C3461347534673495
:102598006834743465347234653464342034653492
:1025A80076346534723479346F346E34653420345B
:1025B80069346E342034733469346734683474345D
:1025C8002E3420344F346E34633465342034683408
:1025D800653420347234653461346C3469347A3447
:1025E8006534643420346834693473342034743482
:1025F800653472347234693462346C34653420342E
:102608006D3469347334743461346B3465342C3408
:1026180020344B347234613474346F34733420345E
:10262800623472346F346B346534203468346934FE
:10263800733420346F34613474346834203474341F
:102648006F34203441347234653473342034613447
:102658006E3464342034733477346F3472346534B0
:10266800203472346534763465346E3467346534B6
:102678002E34203454346834653420347634693444
:102688006C346C3461346734653420346F3472349C
:10269800613463346C3465342C34203477346834D2
:1026A8006F342034743472346934653464342034BB
:1026B80074346F3420347734613472346E34203497
:1026C800683469346D342C3420346334753472348E
:1026D8007334653464342034683469346D34203498
:1026E80074346F3420346234653461347234203485
:1026F8007434683465342034613473346834653430
:10270800733420346F346634203474346834653458
:102718002034663461346D3469346C34793420344F
:102728007434683461347434203468346534203443
:102738006D34753472346434653472346534643499
:1027480020346F346E342034683469347334203460
:1027580073346B3469346E34203466346F347234B5
:082768006534763465347234E7
:020000040001F9
:0A000E008C3FFF3F9F3FFF3FFF3F85
:00000001FF
