:020000040000FA
:08000000803102288731F22F44
:100C2A00F000172E22009E1C1B2E1C2E172E1D2E86
:100C3A0070089A0008006400800101310130FE0248
:100C4A000030FF3B7F087E04031D212E00343E0046
:100C5A00CE134E131030A6003D004B08E03917386A
:100C6A00CB0022001E119F1133309B009D171D16C9
:100C7A009E161E120800F401F501522E710874071F
:100C8A0084007208753D8500000886311526863174
:100C9A000130F4070030F53D522E710874078400C4
:100CAA007208753D85001200031D5C2E5D2E432ED1
:100CBA005E2E0800F401F501622E701C652E662E68
:100CCA006A2E7208F4077308F53D0130F235F30D08
:100CDA00890B6B2E0130F136F00C890B702E7008DF
:100CEA007104031D792E7A2E622E7B2E7508F1006F
:100CFA007408F000802E080086312C268631F030E8
:100D0A00F1008930F2008631402686310030F10048
:100D1A008830F2008631402686312C30F1008A3044
:100D2A00F2008631402686310530F1008A30F20021
:100D3A008631402686318631AC2686311930F1005B
:100D4A008A30F20086314026863180310228F0301E
:100D5A002000A6000130A700FF30A400FF30A50044
:100D6A00AA01AB01A201A301A001A1010230A800BE
:100D7A000030A900AE01AF01022F2000AC01AD0185
:100D8A00EE2E20002F08F1002E08F000F030F200BD
:100D9A000130F30086315F2686311030F6002030AC
:100DAA00F70070087607F8007108773DF90020000F
:100DBA002C087807FA002D08793DFB007A0886008E
:100DCA007B0887000A3081000130AC070030AD3D56
:100DDA00EE2E2D08803AF6002708803A7602031D87
:100DEA00F82E26082C02031CFB2EFC2EC62EFD2EE6
:100DFA0001302000AE070030AF3D2F08803AF600E0
:100E0A002908803A7602031D0C2F28082E02031C9B
:100E1A000F2F102FC22E112F2000AE01AF016D2F00
:100E2A0020002F0885002E088400003084078830AF
:100E3A00853D0008F6002B08F1002A08F000F03082
:100E4A00F2000130F30086315F2686311030F70058
:100E5A002030F80070087707F9007108783DFA0029
:100E6A00200022087907FB0023087A3DFC007B0852
:100E7A0086007C088700760881000130A2070030CE
:100E8A00A33D2A082B0403194B2F4C2F5D2F28084A
:100E9A00FF3EF600FF30293DF7002B087706031DB9
:100EAA00582F2A087606031D5B2F5C2F632F5D2FB0
:100EBA00A409A509A40A0319A50A632F24082A0765
:100ECA00AA0025082B3DAB000130AE070030AF3D2C
:100EDA002F08803AF6002708803A7602031D772FFA
:100EEA0026082E02031C7A2F7B2F152F7C2F200019
:100EFA00AE01AF01E22F2000AC01AD01CE2F2000E0
:100F0A002F08F1002E08F000F030F2000130F30053
:100F1A0086315F2686311030F6002030F7007008DF
:100F2A007607F8007108773DF90020002C08780749
:100F3A0086002D08793D87000A3001060319A62F7D
:100F4A00A72FC82F2F08F1002E08F000F030F2006A
:100F5A000130F30086315F2686311030F6002030EA
:100F6A00F70070087607F8007108773DF90020004D
:100F7A002C08780786002D08793D870001088631FC
:100F8A0015268631C82F01302000AC070030AD3D50
:100F9A00CE2F2D08803AF6002708803A7602031DE4
:100FAA00D82F26082C02031CDB2FDC2F842FDD2FE1
:100FBA0001302000AE070030AF3D2F08803AF6001E
:100FCA002908803A7602031DEC2F28082E02031CFA
:100FDA00EF2FF02F802FF12F0800103084002030DF
:100FEA008500E030FE000330FF008631202687317D
:100FFA0020008631812E4E346F3477342C342034DD
:10100A006134663474346534723420347434683428
:10101A006534203465346E347334753469346E340F
:10102A00673420346134763461346C3461346E341C
:10103A0063346834653420346F346634203473344E
:10104A0065347134753465346C3473342C3420341B
:10105A007034723465347134753465346C34733475
:10106A00203461346E346434203473346934643423
:10107A0065342034733474346F34723469346534AB
:10108A0073342C3420347434683465342034733423
:10109A0061346734613420346F34663420344B341D
:1010AA007234613474346F34733420347334743466
:1010BA00613472342D34633472346F34733473345C
:1010CA006534643420346C346934663465342034CD
:1010DA0068346134733420346234653463346F3471
:1010EA006D3465342034613473342034743461349B
:1010FA006E3467346C3465346434203461346E344D
:10110A006434203463346F346D3470346C34653431
:10111A007834203461347334203474346834653458
:10112A0020346D3479347434683469346334203447
:10113A00743461346C3465347334203474346834F0
:10114A0061347434203469346E34733470346934DD
:10115A007234653464342034743468346534203429
:10116A0077346F3472346C346434203468346534C0
:10117A007334203469346E346834613462346934C7
:10118A007434653464342E34203441346E34643417
:10119A002034743468346F347534673468342034D6
:1011AA0074346834653420347534703463346F347D
:1011BA006D3469346E346734203450346C3461349D
:1011CA007934533474346134743469346F346E341A
:1011DA0020343434203466346F346C346C346F34D5
:1011EA0077342D3475347034203464346F34653474
:1011FA00733420346934743473342034623465347B
:10120A0073347434203474346F3420346C34653459
:10121A006134763465342034743468346534203467
:10122A006C347934723465347334203461346E34F6
:10123A0064342034773469346E3467346534643402
:10124A002034633468346134723469346F347434EA
:10125A00733420346F3466342034663461346E3427
:10126A007434613473347934203461346E346334C1
:10127A00693465346E3474342034473472346534D6
:10128A00653463346534203469346E3420347434FC
:10129A006834653420347234653461347234763497
:1012AA0069346534773420346D3469347234723475
:1012BA006F3472342C3420346834653472346534B3
:1012CA0073342034613420347134753469346334AE
:1012DA006B3420347034723469346D34653472344A
:1012EA0020346F346E34203461346C346C342034DE
:1012FA0074346834653420346D3461346A346F343C
:10130A007234203472346534763465346C34613422
:10131A00743469346F346E347334203466347234FE
:10132A006F346D3420347434683465342034703446
:10133A0072346534763469346F34753473342034D6
:10134A00673461346D34653473342C342034613439
:10135A006E346434203468346F347734203474340F
:10136A0068346534793420347334683461347034C1
:10137A006534643420347434683465342034613418
:10138A006E34673472347934203461346E34743490
:10139A0069346834653472346F3420346134743497
:1013AA0020347434683465342034683465346C34D9
:1013BA006D342E34203447346134623472346934E3
:1013CA0065346C342034503461346C34683461349C
:1013DA007234653473346D3465346E347334613405
:1013EA00673465346D3420346F3472346934673449
:1013FA0069346E3461346C340D343A342034003438
:10140A004D3465346E3473346134673465346D3405
:10141A002034433469346634723461346434613458
:10142A003A3420340D3400340A34463469346D3485
:10143A0020346434613420346D3465346E3473344A
:10144A006134673465346D340D340D3400340D3431
:06145A000D340D340034D6
:020000040001F9
:0A000E008C3FFF3F9F3FFF3FFF3F85
:00000001FF
